{
  "_format": "hh-sol-artifact-1",
  "contractName": "VotingContract",
  "sourceName": "contracts/YourContract.sol",
  "abi": [
    {
      "inputs": [],
      "stateMutability": "nonpayable",
      "type": "constructor"
    },
    {
      "anonymous": false,
      "inputs": [
        {
          "indexed": true,
          "internalType": "uint256",
          "name": "sessionId",
          "type": "uint256"
        },
        {
          "indexed": true,
          "internalType": "address",
          "name": "voter",
          "type": "address"
        },
        {
          "indexed": false,
          "internalType": "uint256",
          "name": "candidateIndex",
          "type": "uint256"
        }
      ],
      "name": "VoteCast",
      "type": "event"
    },
    {
      "anonymous": false,
      "inputs": [
        {
          "indexed": true,
          "internalType": "uint256",
          "name": "sessionId",
          "type": "uint256"
        },
        {
          "indexed": false,
          "internalType": "string",
          "name": "description",
          "type": "string"
        },
        {
          "indexed": false,
          "internalType": "uint256",
          "name": "startTime",
          "type": "uint256"
        },
        {
          "indexed": false,
          "internalType": "uint256",
          "name": "endTime",
          "type": "uint256"
        }
      ],
      "name": "VotingSessionCreated",
      "type": "event"
    },
    {
      "inputs": [
        {
          "internalType": "string",
          "name": "_description",
          "type": "string"
        },
        {
          "internalType": "string[]",
          "name": "_candidateNames",
          "type": "string[]"
        },
        {
          "internalType": "uint256",
          "name": "_startTime",
          "type": "uint256"
        },
        {
          "internalType": "uint256",
          "name": "_endTime",
          "type": "uint256"
        }
      ],
      "name": "createVotingSession",
      "outputs": [],
      "stateMutability": "nonpayable",
      "type": "function"
    },
    {
      "inputs": [],
      "name": "getOwner",
      "outputs": [
        {
          "internalType": "address",
          "name": "",
          "type": "address"
        }
      ],
      "stateMutability": "view",
      "type": "function"
    },
    {
      "inputs": [
        {
          "internalType": "uint256",
          "name": "sessionId",
          "type": "uint256"
        }
      ],
      "name": "getResults",
      "outputs": [
        {
          "internalType": "string[]",
          "name": "",
          "type": "string[]"
        },
        {
          "internalType": "uint256[]",
          "name": "",
          "type": "uint256[]"
        }
      ],
      "stateMutability": "view",
      "type": "function"
    },
    {
      "inputs": [],
      "name": "owner",
      "outputs": [
        {
          "internalType": "address",
          "name": "",
          "type": "address"
        }
      ],
      "stateMutability": "view",
      "type": "function"
    },
    {
      "inputs": [
        {
          "internalType": "address",
          "name": "newOwner",
          "type": "address"
        }
      ],
      "name": "transferOwnership",
      "outputs": [],
      "stateMutability": "nonpayable",
      "type": "function"
    },
    {
      "inputs": [
        {
          "internalType": "uint256",
          "name": "sessionId",
          "type": "uint256"
        },
        {
          "internalType": "uint256",
          "name": "candidateIndex",
          "type": "uint256"
        }
      ],
      "name": "vote",
      "outputs": [],
      "stateMutability": "nonpayable",
      "type": "function"
    },
    {
      "inputs": [],
      "name": "votingSessionCount",
      "outputs": [
        {
          "internalType": "uint256",
          "name": "",
          "type": "uint256"
        }
      ],
      "stateMutability": "view",
      "type": "function"
    },
    {
      "inputs": [
        {
          "internalType": "uint256",
          "name": "",
          "type": "uint256"
        }
      ],
      "name": "votingSessions",
      "outputs": [
        {
          "internalType": "string",
          "name": "description",
          "type": "string"
        },
        {
          "internalType": "uint256",
          "name": "startTime",
          "type": "uint256"
        },
        {
          "internalType": "uint256",
          "name": "endTime",
          "type": "uint256"
        },
        {
          "internalType": "bool",
          "name": "exists",
          "type": "bool"
        }
      ],
      "stateMutability": "view",
      "type": "function"
    }
  ],
  "bytecode": "0x6080604052600060015534801561001557600080fd5b50600080546001600160a01b03191633179055610e1e806100376000396000f3fe608060405234801561001057600080fd5b50600436106100885760003560e01c8063932a14e81161005b578063932a14e814610112578063b384abef14610127578063b6c5947e1461013a578063f2fde38b1461015157600080fd5b80631186eb7c1461008d57806381a60c0d146100b9578063893d20e8146100da5780638da5cb5b146100ff575b600080fd5b6100a061009b366004610914565b610164565b6040516100b09493929190610973565b60405180910390f35b6100cc6100c7366004610914565b610219565b6040516100b09291906109a4565b6000546001600160a01b03165b6040516001600160a01b0390911681526020016100b0565b6000546100e7906001600160a01b031681565b610125610120366004610af6565b61046c565b005b610125610135366004610beb565b610616565b61014360015481565b6040519081526020016100b0565b61012561015f366004610c0d565b610852565b60026020526000908152604090208054819061017f90610c3d565b80601f01602080910402602001604051908101604052809291908181526020018280546101ab90610c3d565b80156101f85780601f106101cd576101008083540402835291602001916101f8565b820191906000526020600020905b8154815290600101906020018083116101db57829003601f168201915b50505050600183015460028401546005909401549293909290915060ff1684565b6000818152600260205260409020600501546060908190839060ff166102865760405162461bcd60e51b815260206004820152601d60248201527f566f74696e672073657373696f6e20646f6573206e6f7420657869737400000060448201526064015b60405180910390fd5b6000848152600260205260408120600481015490918167ffffffffffffffff8111156102b4576102b4610a3f565b6040519080825280602002602001820160405280156102e757816020015b60608152602001906001900390816102d25790505b50905060008267ffffffffffffffff81111561030557610305610a3f565b60405190808252806020026020018201604052801561032e578160200160208202803683370190505b50905060005b8381101561045e5784600401818154811061035157610351610c77565b9060005260206000209060020201600001805461036d90610c3d565b80601f016020809104026020016040519081016040528092919081815260200182805461039990610c3d565b80156103e65780601f106103bb576101008083540402835291602001916103e6565b820191906000526020600020905b8154815290600101906020018083116103c957829003601f168201915b50505050508382815181106103fd576103fd610c77565b602002602001018190525084600401818154811061041d5761041d610c77565b90600052602060002090600202016001015482828151811061044157610441610c77565b60209081029190910101528061045681610c8d565b915050610334565b509095509350505050915091565b6000546001600160a01b031633146104b65760405162461bcd60e51b815260206004820152600d60248201526c2737ba103a34329027bbb732b960991b604482015260640161027d565b8082106104fb5760405162461bcd60e51b8152602060048201526013602482015272125b9d985b1a59081d1a5b59481c195c9a5bd9606a1b604482015260640161027d565b6001546000908152600260205260409020806105178682610d03565b5060018082018490556002820183905560058201805460ff1916909117905560005b84518110156105bb5781600401604051806040016040528087848151811061056357610563610c77565b6020908102919091018101518252600091810182905283546001810185559382529020815191926002020190819061059b9082610d03565b5060208201518160010155505080806105b390610c8d565b915050610539565b506001547fcf07fb5b17af845f62876973c7b3062818cf42cc0a7ae41b13f5764f71af58958685856040516105f293929190610dc3565b60405180910390a26001805490600061060a83610c8d565b91905055505050505050565b600082815260026020526040902060050154829060ff166106795760405162461bcd60e51b815260206004820152601d60248201527f566f74696e672073657373696f6e20646f6573206e6f74206578697374000000604482015260640161027d565b600083815260026020526040902060010154839042108015906106ae5750600081815260026020819052604090912001544211155b6106f15760405162461bcd60e51b8152602060048201526014602482015273566f74696e67206973206e6f742061637469766560601b604482015260640161027d565b6000848152600260209081526040808320338452600301909152902054849060ff16156107595760405162461bcd60e51b8152602060048201526016602482015275165bdd481a185d9948185b1c9958591e481d9bdd195960521b604482015260640161027d565b6000858152600260205260409020600481015485106107ba5760405162461bcd60e51b815260206004820152601760248201527f496e76616c69642063616e64696461746520696e646578000000000000000000604482015260640161027d565b8060040185815481106107cf576107cf610c77565b6000918252602082206001600290920201018054916107ed83610c8d565b909155505033600081815260038301602052604090819020805460ff191660011790555187907f2acce567deca3aabf56327adbb4524bd5318936eaefa69e3a5208ffda0cfec09906108429089815260200190565b60405180910390a3505050505050565b6000546001600160a01b0316331461089c5760405162461bcd60e51b815260206004820152600d60248201526c2737ba103a34329027bbb732b960991b604482015260640161027d565b6001600160a01b0381166108f25760405162461bcd60e51b815260206004820152601d60248201527f4e6577206f776e657220697320746865207a65726f2061646472657373000000604482015260640161027d565b600080546001600160a01b0319166001600160a01b0392909216919091179055565b60006020828403121561092657600080fd5b5035919050565b6000815180845260005b8181101561095357602081850181015186830182015201610937565b506000602082860101526020601f19601f83011685010191505092915050565b608081526000610986608083018761092d565b60208301959095525060408101929092521515606090910152919050565b6000604082016040835280855180835260608501915060608160051b8601019250602080880160005b838110156109fb57605f198887030185526109e986835161092d565b955093820193908201906001016109cd565b50508584038187015286518085528782019482019350915060005b82811015610a3257845184529381019392810192600101610a16565b5091979650505050505050565b634e487b7160e01b600052604160045260246000fd5b604051601f8201601f1916810167ffffffffffffffff81118282101715610a7e57610a7e610a3f565b604052919050565b600082601f830112610a9757600080fd5b813567ffffffffffffffff811115610ab157610ab1610a3f565b610ac4601f8201601f1916602001610a55565b818152846020838601011115610ad957600080fd5b816020850160208301376000918101602001919091529392505050565b60008060008060808587031215610b0c57600080fd5b843567ffffffffffffffff80821115610b2457600080fd5b610b3088838901610a86565b9550602091508187013581811115610b4757600080fd5b8701601f81018913610b5857600080fd5b803582811115610b6a57610b6a610a3f565b8060051b610b79858201610a55565b918252828101850191858101908c841115610b9357600080fd5b86850192505b83831015610bcf57823586811115610bb15760008081fd5b610bbf8e8983890101610a86565b8352509186019190860190610b99565b999c999b50505050604088013597606001359695505050505050565b60008060408385031215610bfe57600080fd5b50508035926020909101359150565b600060208284031215610c1f57600080fd5b81356001600160a01b0381168114610c3657600080fd5b9392505050565b600181811c90821680610c5157607f821691505b602082108103610c7157634e487b7160e01b600052602260045260246000fd5b50919050565b634e487b7160e01b600052603260045260246000fd5b600060018201610cad57634e487b7160e01b600052601160045260246000fd5b5060010190565b601f821115610cfe57600081815260208120601f850160051c81016020861015610cdb5750805b601f850160051c820191505b81811015610cfa57828155600101610ce7565b5050505b505050565b815167ffffffffffffffff811115610d1d57610d1d610a3f565b610d3181610d2b8454610c3d565b84610cb4565b602080601f831160018114610d665760008415610d4e5750858301515b600019600386901b1c1916600185901b178555610cfa565b600085815260208120601f198616915b82811015610d9557888601518255948401946001909101908401610d76565b5085821015610db35787850151600019600388901b60f8161c191681555b5050505050600190811b01905550565b606081526000610dd6606083018661092d565b6020830194909452506040015291905056fea2646970667358221220646c1f37f5b4f5f3cd6f196abcae0469180b7a1e4f0a1ffbe7ba2e7ea3ecd90c64736f6c63430008140033",
  "linkReferences": {},
  "deployedLinkReferences": {}
}